:1000000041C05BC05AC059C058C057C056C055C047
:1000100054C0EAC052C051C050C04FC04EC04DC0C5
:100020004CC04BC04AC049C048C008000000BE9246
:100030002449123EABAAAA2ABECDCCCC4C3E00002D
:100040000080BEABAAAAAA3E00000000BF000000CC
:10005000803F0000000000084178D3BB4387D113E4
:100060003D190E3CC3BD4282AD2B3E68EC8276BE8C
:10007000D98FE1A93E4C80EFFFBE01C4FF7F3F0056
:100080000000000011241FBECFE5D2E0DEBFCDBFCF
:1000900010E0A0E6B0E0ECE9F8E002C005900D92B7
:1000A000A236B107D9F720E0A2E6B0E001C01D9268
:1000B000A336B207E1F745D1EFC3A2CF982F9E7FB9
:1000C00095BBAA9A0000AA9828EE33E0F90131976F
:1000D000F1F78295807F85BBAA9A0000AA98C90192
:1000E0000197F1F70895982F916095BBAA9A0000A7
:1000F000AA9828EE33E0F9013197F1F740E1849FA7
:10010000C0011124816085BBAA9A0000AA98C90188
:100110000197F1F70895CF93DF9384E2CFDFC0E139
:10012000D7E2CE010197F1F78CE0C8DF2197F1F714
:10013000DF91CF910895CF93DF93C82F6AE070E0ED
:1001400039D1D62F81E0BADF80E38D0FCCDF80E399
:100150008C0F9AE0D99F80191124DF91CF91C3CFE2
:1001600080916200813089F48091600090916100FB
:10017000009789F10197909361008093600010923D
:100180006200D9DF81E090E00895823079F48091B7
:1001900060009091610001969093610080936000EF
:1001A00010926200C8DF82E090E00895833089F405
:1001B0001092620081E082DF83E595DF84E793DFC0
:1001C00081E691DF82E78FDF84E78DDF83E090E0D7
:1001D000089580E090E00895369A349BFECF84B174
:1001E00025B190E0922B08951F920F920FB60F92B7
:1001F00011248F939F9384990AC080E49DE0019716
:10020000F1F784991DC0849BFECF81E017C08599CA
:100210000AC080E49DE00197F1F7859911C0859BA4
:10022000FECF82E00BC086990BC080E49DE0019771
:10023000F1F7869905C0869BFECF83E0809362002C
:1002400012BE18BE9F918F910F900FBE0F901F90FE
:100250001895CF92DF92EF92FF92CF93DF93BCDF9E
:10026000BC0180E090E08BD120E030E040EA50E437
:100270007DD220E030E040E85AE378D220E030E060
:1002800040E250E414D132D220E030E646E855E4B2
:100290000ED122E63BEE4BE55BE3A1D09B01AC0126
:1002A00060E070E080E89FE302D120E030E848E8B9
:1002B00053E494D020E030E040E85FE390D06B015D
:1002C0007C01609160007091610080E090E057D106
:1002D0009B01AC01C1E0D0E0C701B601E4D0181623
:1002E00014F4C0E0D0E0CE01DF91CF91FF90EF9009
:1002F000DF90CF9008958091620010926200833069
:1003000019F481E090E0089580E090E00895CF93A3
:10031000DF93CCEDD5E084E690E0909AFE01319732
:10032000F1F79098FE013197F1F70197B1F7F89442
:10033000E2DF019721F47894DF91CF9108957894CA
:10034000EACF85EF84BB80E894E80197F1F780E27B
:1003500085BBAA9A0000AA9880E197E20197F1F77D
:10036000DADE83E081BB80E782BB84E886B917B818
:1003700081E089BF83BFC0E1D7E210E780916000D0
:1003800090916100D8DE7894CE010197F1F7F8944E
:10039000E7DE0397C1F77894919ACE010197F1F7C0
:1003A000F89457DF892B21F07894B1DF12BBE6CFA8
:1003B0007894F3CFAA1BBB1B51E107C0AA1FBB1F38
:1003C000A617B70710F0A61BB70B881F991F5A95E1
:1003D000A9F780959095BC01CD0108955058BB2791
:1003E000AA270ED044C135D130F03AD120F031F4F3
:1003F0009F3F11F41EF42AC10EF4E095E7FB20C1E3
:10040000E92F46D180F3BA1762077307840795076F
:1004100018F071F49EF55EC10EF4E0950B2EBA2F24
:10042000A02D0B01B90190010C01CA01A0011124FA
:10043000FF27591B99F0593F50F4503E68F11A16A6
:10044000F040A22F232F342F4427585FF3CF469537
:1004500037952795A795F0405395C9F77EF41F1659
:10046000BA0B620B730B840BBAF09150A1F0FF0F23
:10047000BB1F661F771F881FC2F70EC0BA0F621F0F
:10048000731F841F48F4879577956795B795F795FF
:100490009E3F08F0B3CF9395880F08F09927EE0F91
:1004A000979587950895A8D008F481E008950CD019
:1004B000DEC0D6D040F0CDD030F021F45F3F19F04F
:1004C000BFC0511108C1C2C0E3D098F39923C9F34A
:1004D0005523B1F3951B550BBB27AA27621773074A
:1004E000840738F09F5F5F4F220F331F441FAA1FFE
:1004F000A9F333D00E2E3AF0E0E830D091505040BE
:10050000E695001CCAF729D0FE2F27D0660F771F6B
:10051000881FBB1F261737074807AB07B0E809F04D
:10052000BB0B802DBF01FF2793585F4F2AF09E3FE2
:10053000510568F085C0CFC05F3FECF3983EDCF317
:10054000869577956795B795F7959F5FC9F7880F5B
:10055000911D9695879597F90895E1E0660F771FAD
:10056000881FBB1F621773078407BA0720F0621B3E
:10057000730B840BBA0BEE1F88F7E0950895E8948F
:1005800009C097FB3EF490958095709561957F4FDB
:100590008F4F9F4F9923A9F0F92F96E9BB27939589
:1005A000F695879577956795B795F111F8CFFAF499
:1005B000BB0F11F460FF1BC06F5F7F4F8F4F9F4FCA
:1005C00016C0882311F096E911C0772321F09EE828
:1005D000872F762F05C0662371F096E8862F70E08E
:1005E00060E02AF09A95660F771F881FDAF7880F68
:1005F0009695879597F90895990F0008550FAA0BBE
:10060000E0E8FEEF16161706E807F907C0F0121625
:100610001306E407F50798F0621B730B840B950B28
:1006200039F40A2661F0232B242B252B21F408957D
:100630000A2609F4A140A6958FEF811D811D08951A
:1006400097F99F6780E870E060E008959FEF80EC85
:10065000089500240A941616170618060906089528
:1006600000240A9412161306140605060895092E8E
:100670000394000C11F4882352F0BB0F40F4BF2BFD
:1006800011F460FF04C06F5F7F4F8F4F9F4F08953D
:1006900057FD9058440F551F59F05F3F71F0479533
:1006A000880F97FB991F61F09F3F79F08795089518
:1006B000121613061406551FF2CF4695F1DF08C037
:1006C000161617061806991FF1CF86957105610554
:1006D00008940895E894BB2766277727CB0197F9FC
:1006E00008950EF0A6C0B2CF6894AACFD9DFC8F3A0
:1006F0009923D1F3C6F3DF93CF931F930F93FF9208
:10070000C92FDD2788232AF02197660F771F881FBE
:10071000DAF720E030E040E85FEB9FE3883920F033
:10072000803E30F021968F775ADEEAE2F0E003C097
:1007300056DEE7E5F0E08BD08B01BE01EC01FB2E2D
:100740006F5771097595771F880B990B1ADF28E190
:1007500032E741E35FE316D0AF2D9801AE01FF9081
:100760000F911F91CF91DF914BDE81CF0BD07FCFC7
:1007700070DF28F075DF18F0952309F061CF66CFA0
:100780001124A9CF85DFA0F3959FD1F3950F50E0F9
:10079000551F629FF001729FBB27F00DB11D639F33
:1007A000AA27F00DB11DAA1F649F6627B00DA11DD9
:1007B000661F829F2227B00DA11D621F739FB00D7F
:1007C000A11D621F839FA00D611D221F749F3327EF
:1007D000A00D611D231F849F600D211D822F762F88
:1007E0006A2F11249F5750408AF0E1F088234AF085
:1007F000EE0FFF1FBB1F661F771F881F91505040D1
:10080000A9F79E3F510570F01BCF65CF5F3FECF31A
:10081000983EDCF3869577956795B795F795E795BC
:100820009F5FC1F7FE2B880F911D9695879597F9CD
:1008300008959F3F31F0915020F487957795679503
:10084000B795880F911D9695879597F90895DF9331
:10085000CF931F930F93FF92EF92DF927B018C0156
:10086000689405C0DA2EEF018DDFFE01E894A591B2
:100870002591359145915591AEF3EF01C1DDFE0112
:100880009701A801DA9479F7DF90EF90FF900F912C
:0C0890001F91CF91DF910895F894FFCFE5
:02089C00120048
:00000001FF
